8=FIX.4.4|9=65|35=A|34=1|49=BANZAI|52=20230201-07:04:39.967|56=EXEC|98=0|108=30|10=226|8=FIX.4.4|9=53|35=0|34=2|49=BANZAI|52=20230201-07:05:10.884|56=EXEC|10=170|8=FIX.4.4|9=53|35=0|34=3|49=BANZAI|52=20230201-07:05:40.879|56=EXEC|10=178|8=FIX.4.4|9=53|35=0|34=4|49=BANZAI|52=20230201-07:06:10.887|56=EXEC|10=176|8=FIX.4.4|9=53|35=0|34=5|49=BANZAI|52=20230201-07:06:40.886|56=EXEC|10=179|8=FIX.4.4|9=53|35=0|34=6|49=BANZAI|52=20230201-07:07:10.882|56=EXEC|10=174|8=FIX.4.4|9=53|35=0|34=7|49=BANZAI|52=20230201-07:07:40.889|56=EXEC|10=185|8=FIX.4.4|9=53|35=0|34=8|49=BANZAI|52=20230201-07:08:10.888|56=EXEC|10=183|8=FIX.4.4|9=53|35=0|34=9|49=BANZAI|52=20230201-07:08:40.887|56=EXEC|10=186|8=FIX.4.4|9=54|35=0|34=10|49=BANZAI|52=20230201-07:09:10.936|56=EXEC|10=220|8=FIX.4.4|9=54|35=0|34=11|49=BANZAI|52=20230201-07:09:41.878|56=EXEC|10=230|8=FIX.4.4|9=54|35=0|34=12|49=BANZAI|52=20230201-07:10:11.876|56=EXEC|10=218|8=FIX.4.4|9=54|35=0|34=13|49=BANZAI|52=20230201-07:10:41.879|56=EXEC|10=225|8=FIX.4.4|9=54|35=0|34=14|49=BANZAI|52=20230201-07:11:11.880|56=EXEC|10=216|