8=FIX.4.4|9=65|35=A|34=1|49=CLIENT|52=20230201-07:03:27.769|56=EXEC|98=0|108=30|10=232|8=FIX.4.4|9=65|35=A|34=2|49=CLIENT|52=20230201-07:03:32.664|56=EXEC|98=0|108=30|10=223|8=FIX.4.4|9=65|35=A|34=3|49=CLIENT|52=20230201-07:03:37.667|56=EXEC|98=0|108=30|10=232|8=FIX.4.4|9=65|35=A|34=4|49=CLIENT|52=20230201-07:03:42.666|56=EXEC|98=0|108=30|10=228|8=FIX.4.4|9=65|35=A|34=5|49=CLIENT|52=20230201-07:03:47.671|56=EXEC|98=0|108=30|10=230|8=FIX.4.4|9=65|35=A|34=6|49=CLIENT|52=20230201-07:03:52.659|56=EXEC|98=0|108=30|10=233|8=FIX.4.4|9=65|35=A|34=7|49=CLIENT|52=20230201-07:03:57.666|56=EXEC|98=0|108=30|10=237|8=FIX.4.4|9=65|35=A|34=8|49=CLIENT|52=20230201-07:04:02.673|56=EXEC|98=0|108=30|10=227|8=FIX.4.4|9=65|35=A|34=9|49=CLIENT|52=20230201-07:04:07.672|56=EXEC|98=0|108=30|10=232|8=FIX.4.4|9=66|35=A|34=10|49=CLIENT|52=20230201-07:04:12.669|56=EXEC|98=0|108=30|10=019|8=FIX.4.4|9=66|35=A|34=11|49=CLIENT|52=20230201-07:04:17.663|56=EXEC|98=0|108=30|10=019|8=FIX.4.4|9=66|35=A|34=12|49=CLIENT|52=20230201-07:04:22.663|56=EXEC|98=0|108=30|10=016|8=FIX.4.4|9=66|35=A|34=13|49=CLIENT|52=20230201-07:04:28.710|56=EXEC|98=0|108=30|10=016|8=FIX.4.4|9=66|35=A|34=14|49=CLIENT|52=20230201-07:22:31.061|56=EXEC|98=0|108=30|10=010|8=FIX.4.4|9=54|35=0|34=15|49=CLIENT|52=20230201-07:23:01.887|56=EXEC|10=236|8=FIX.4.4|9=66|35=A|34=16|49=CLIENT|52=20230201-07:26:46.045|56=EXEC|98=0|108=30|10=024|8=FIX.4.4|9=66|35=A|34=17|49=CLIENT|52=20230201-07:37:57.959|56=EXEC|98=0|108=30|10=043|