8=FIX.4.2|9=65|35=A|34=1|49=CLIENT|52=20230201-07:03:27.659|56=EXEC|98=0|108=30|10=228|8=FIX.4.2|9=65|35=A|34=2|49=CLIENT|52=20230201-07:03:32.664|56=EXEC|98=0|108=30|10=221|8=FIX.4.2|9=65|35=A|34=3|49=CLIENT|52=20230201-07:03:37.667|56=EXEC|98=0|108=30|10=230|8=FIX.4.2|9=160|35=S|34=4|49=CLIENT|52=20230201-07:03:39.756|56=EXEC|1=ACC|40=2|48=ABC123XYZ|55=ABC123XYZ|60=20230201-12:33:39.756|116=ACC|117=qt|133=0|135=0|301=1|423=1|537=1|10=137|8=FIX.4.2|9=65|35=A|34=5|49=CLIENT|52=20230201-07:03:42.666|56=EXEC|98=0|108=30|10=227|8=FIX.4.2|9=65|35=A|34=6|49=CLIENT|52=20230201-07:03:47.670|56=EXEC|98=0|108=30|10=228|8=FIX.4.2|9=65|35=A|34=7|49=CLIENT|52=20230201-07:03:52.659|56=EXEC|98=0|108=30|10=232|8=FIX.4.2|9=65|35=A|34=8|49=CLIENT|52=20230201-07:03:57.666|56=EXEC|98=0|108=30|10=236|8=FIX.4.2|9=65|35=A|34=9|49=CLIENT|52=20230201-07:04:02.662|56=EXEC|98=0|108=30|10=224|8=FIX.4.2|9=66|35=A|34=10|49=CLIENT|52=20230201-07:04:07.671|56=EXEC|98=0|108=30|10=014|8=FIX.4.2|9=66|35=A|34=11|49=CLIENT|52=20230201-07:04:12.667|56=EXEC|98=0|108=30|10=016|8=FIX.4.2|9=66|35=A|34=12|49=CLIENT|52=20230201-07:04:17.662|56=EXEC|98=0|108=30|10=017|8=FIX.4.2|9=66|35=A|34=13|49=CLIENT|52=20230201-07:04:22.662|56=EXEC|98=0|108=30|10=014|8=FIX.4.2|9=66|35=A|34=14|49=CLIENT|52=20230201-07:04:27.665|56=EXEC|98=0|108=30|10=023|8=FIX.4.2|9=66|35=A|34=15|49=CLIENT|52=20230201-07:22:30.903|56=EXEC|98=0|108=30|10=013|8=FIX.4.2|9=54|35=0|34=16|49=CLIENT|52=20230201-07:23:01.887|56=EXEC|10=235|8=FIX.4.2|9=161|35=S|34=17|49=CLIENT|52=20230201-07:23:10.537|56=EXEC|1=ACC|40=2|48=ABC123XYZ|55=ABC123XYZ|60=20230201-12:53:10.537|116=ACC|117=qt|133=0|135=0|301=1|423=1|537=1|10=166|8=FIX.4.2|9=66|35=A|34=18|49=CLIENT|52=20230201-07:26:45.903|56=EXEC|98=0|108=30|10=026|8=FIX.4.2|9=161|35=S|34=19|49=CLIENT|52=20230201-07:26:51.087|56=EXEC|1=ACC|40=2|48=ABC123XYZ|55=ABC123XYZ|60=20230201-12:56:51.087|116=ACC|117=qt|133=0|135=0|301=1|423=1|537=1|10=184|8=FIX.4.2|9=66|35=A|34=20|49=CLIENT|52=20230201-07:37:57.802|56=EXEC|98=0|108=30|10=022|8=FIX.4.2|9=161|35=S|34=21|49=CLIENT|52=20230201-07:38:03.019|56=EXEC|1=ACC|40=2|48=ABC123XYZ|55=ABC123XYZ|60=20230201-13:08:03.019|116=ACC|117=qt|133=0|135=0|301=1|423=1|537=1|10=162|