8=FIX.4.2|9=67|35=A|34=1|49=CLIENT|52=20230201-06:55:40.326|56=SERVER|98=0|108=30|10=144|8=FIX.4.2|9=67|35=A|34=2|49=CLIENT|52=20230201-06:55:45.204|56=SERVER|98=0|108=30|10=145|8=FIX.4.2|9=67|35=A|34=3|49=CLIENT|52=20230201-06:55:50.240|56=SERVER|98=0|108=30|10=142|8=FIX.4.2|9=120|35=F|34=4|49=CLIENT|52=20230201-06:55:52.890|56=SERVER|11=321|41=123|54=1|58=Cancel this order|60=20230201-06:55:52.876|10=211|8=FIX.4.2|9=67|35=A|34=5|49=CLIENT|52=20230201-06:55:56.208|56=SERVER|98=0|108=30|10=154|8=FIX.4.2|9=67|35=A|34=6|49=CLIENT|52=20230201-06:56:01.206|56=SERVER|98=0|108=30|10=144|8=FIX.4.2|9=67|35=A|34=7|49=CLIENT|52=20230201-06:56:06.196|56=SERVER|98=0|108=30|10=158|8=FIX.4.2|9=67|35=A|34=8|49=CLIENT|52=20230201-06:56:11.204|56=SERVER|98=0|108=30|10=145|8=FIX.4.2|9=67|35=A|34=9|49=CLIENT|52=20230201-06:56:16.201|56=SERVER|98=0|108=30|10=148|8=FIX.4.2|9=68|35=A|34=10|49=CLIENT|52=20230201-06:56:21.196|56=SERVER|98=0|108=30|10=198|8=FIX.4.2|9=68|35=A|34=11|49=CLIENT|52=20230201-06:56:26.203|56=SERVER|98=0|108=30|10=193|8=FIX.4.2|9=68|35=A|34=12|49=CLIENT|52=20230201-06:56:31.204|56=SERVER|98=0|108=30|10=191|8=FIX.4.2|9=68|35=A|34=13|49=CLIENT|52=20230201-06:56:36.198|56=SERVER|98=0|108=30|10=209|8=FIX.4.2|9=68|35=A|34=14|49=CLIENT|52=20230201-06:56:41.207|56=SERVER|98=0|108=30|10=197|8=FIX.4.2|9=68|35=A|34=15|49=CLIENT|52=20230201-06:56:46.201|56=SERVER|98=0|108=30|10=197|8=FIX.4.2|9=68|35=A|34=16|49=CLIENT|52=20230201-06:56:51.195|56=SERVER|98=0|108=30|10=206|8=FIX.4.2|9=68|35=A|34=17|49=CLIENT|52=20230201-06:56:56.210|56=SERVER|98=0|108=30|10=200|8=FIX.4.2|9=68|35=A|34=18|49=CLIENT|52=20230201-06:57:02.201|56=SERVER|98=0|108=30|10=193|8=FIX.4.2|9=121|35=F|34=19|49=CLIENT|52=20230201-06:57:02.934|56=SERVER|11=321|41=123|54=1|58=Cancel this order|60=20230201-06:57:02.934|10=254|8=FIX.4.2|9=68|35=A|34=20|49=CLIENT|52=20230201-06:57:07.196|56=SERVER|98=0|108=30|10=204|8=FIX.4.2|9=68|35=A|34=21|49=CLIENT|52=20230201-06:57:12.194|56=SERVER|98=0|108=30|10=199|8=FIX.4.2|9=121|35=F|34=22|49=CLIENT|52=20230201-06:57:13.819|56=SERVER|11=321|41=123|54=1|58=Cancel this order|60=20230201-06:57:13.819|10=000|8=FIX.4.2|9=68|35=A|34=23|49=CLIENT|52=20230201-06:57:17.206|56=SERVER|98=0|108=30|10=200|8=FIX.4.2|9=68|35=A|34=24|49=CLIENT|52=20230201-06:57:22.195|56=SERVER|98=0|108=30|10=204|8=FIX.4.2|9=121|35=F|34=25|49=CLIENT|52=20230201-06:57:26.543|56=SERVER|11=321|41=123|54=1|58=Cancel this order|60=20230201-06:57:26.543|10=255|8=FIX.4.2|9=68|35=A|34=26|49=CLIENT|52=20230201-06:57:27.204|56=SERVER|98=0|108=30|10=202|8=FIX.4.2|9=68|35=A|34=27|49=CLIENT|52=20230201-06:57:32.198|56=SERVER|98=0|108=30|10=211|8=FIX.4.2|9=68|35=A|34=28|49=CLIENT|52=20230201-06:57:43.533|56=SERVER|98=0|108=30|10=207|8=FIX.4.2|9=68|35=A|34=29|49=CLIENT|52=20230201-06:57:48.410|56=SERVER|98=0|108=30|10=207|8=FIX.4.2|9=68|35=A|34=30|49=CLIENT|52=20230201-06:57:53.418|56=SERVER|98=0|108=30|10=203|8=FIX.4.2|9=121|35=F|34=31|49=CLIENT|52=20230201-06:58:00.602|56=SERVER|11=321|41=123|54=1|58=Cancel this order|60=20230201-06:57:55.234|10=240|8=FIX.4.2|9=68|35=A|34=32|49=CLIENT|52=20230201-06:58:05.241|56=SERVER|98=0|108=30|10=197|8=FIX.4.2|9=121|35=F|34=33|49=CLIENT|52=20230201-06:58:12.885|56=SERVER|11=321|41=123|54=1|58=Cancel this order|60=20230201-06:58:10.286|10=001|8=FIX.4.2|9=68|35=A|34=34|49=CLIENT|52=20230201-06:58:12.893|56=SERVER|98=0|108=30|10=210|8=FIX.4.2|9=68|35=A|34=35|49=CLIENT|52=20230201-06:58:18.412|56=SERVER|98=0|108=30|10=204|8=FIX.4.2|9=68|35=A|34=36|49=CLIENT|52=20230201-06:58:23.413|56=SERVER|98=0|108=30|10=202|8=FIX.4.2|9=68|35=A|34=37|49=CLIENT|52=20230201-06:58:28.421|56=SERVER|98=0|108=30|10=207|8=FIX.4.2|9=68|35=A|34=38|49=CLIENT|52=20230201-06:58:33.407|56=SERVER|98=0|108=30|10=208|8=FIX.4.2|9=68|35=A|34=39|49=CLIENT|52=20230201-06:58:38.407|56=SERVER|98=0|108=30|10=214|8=FIX.4.2|9=68|35=A|34=40|49=CLIENT|52=20230201-06:58:43.421|56=SERVER|98=0|108=30|10=198|8=FIX.4.2|9=68|35=A|34=41|49=CLIENT|52=20230201-06:58:48.418|56=SERVER|98=0|108=30|10=210|8=FIX.4.2|9=68|35=A|34=42|49=CLIENT|52=20230201-06:58:53.417|56=SERVER|98=0|108=30|10=206|8=FIX.4.2|9=68|35=A|34=43|49=CLIENT|52=20230201-06:58:58.409|56=SERVER|98=0|108=30|10=213|8=FIX.4.2|9=68|35=A|34=44|49=CLIENT|52=20230201-06:59:03.409|56=SERVER|98=0|108=30|10=205|8=FIX.4.2|9=68|35=A|34=45|49=CLIENT|52=20230201-06:59:09.417|56=SERVER|98=0|108=30|10=211|8=FIX.4.2|9=68|35=A|34=46|49=CLIENT|52=20230201-06:59:14.415|56=SERVER|98=0|108=30|10=206|8=FIX.4.2|9=68|35=A|34=47|49=CLIENT|52=20230201-06:59:19.414|56=SERVER|98=0|108=30|10=211|8=FIX.4.2|9=68|35=A|34=48|49=CLIENT|52=20230201-06:59:24.408|56=SERVER|98=0|108=30|10=211|8=FIX.4.2|9=68|35=A|34=49|49=CLIENT|52=20230201-06:59:29.416|56=SERVER|98=0|108=30|10=216|8=FIX.4.2|9=68|35=A|34=50|49=CLIENT|52=20230201-06:59:34.422|56=SERVER|98=0|108=30|10=201|8=FIX.4.2|9=68|35=A|34=51|49=CLIENT|52=20230201-06:59:39.417|56=SERVER|98=0|108=30|10=211|8=FIX.4.2|9=68|35=A|34=52|49=CLIENT|52=20230201-06:59:44.416|56=SERVER|98=0|108=30|10=207|8=FIX.4.2|9=68|35=A|34=53|49=CLIENT|52=20230201-06:59:49.414|56=SERVER|98=0|108=30|10=211|8=FIX.4.2|9=68|35=A|34=54|49=CLIENT|52=20230201-06:59:54.419|56=SERVER|98=0|108=30|10=213|8=FIX.4.2|9=68|35=A|34=55|49=CLIENT|52=20230201-06:59:59.417|56=SERVER|98=0|108=30|10=217|8=FIX.4.2|9=68|35=A|34=56|49=CLIENT|52=20230201-07:00:04.418|56=SERVER|98=0|108=30|10=196|8=FIX.4.2|9=68|35=A|34=57|49=CLIENT|52=20230201-07:00:09.416|56=SERVER|98=0|108=30|10=200|8=FIX.4.2|9=68|35=A|34=58|49=CLIENT|52=20230201-07:00:14.413|56=SERVER|98=0|108=30|10=194|8=FIX.4.2|9=68|35=A|34=59|49=CLIENT|52=20230201-07:00:19.417|56=SERVER|98=0|108=30|10=204|8=FIX.4.2|9=68|35=A|34=60|49=CLIENT|52=20230201-07:00:24.415|56=SERVER|98=0|108=30|10=190|8=FIX.4.2|9=68|35=A|34=61|49=CLIENT|52=20230201-07:00:29.412|56=SERVER|98=0|108=30|10=193|8=FIX.4.2|9=68|35=A|34=62|49=CLIENT|52=20230201-07:00:34.411|56=SERVER|98=0|108=30|10=189|8=FIX.4.2|9=68|35=A|34=63|49=CLIENT|52=20230201-07:00:39.411|56=SERVER|98=0|108=30|10=195|8=FIX.4.2|9=68|35=A|34=64|49=CLIENT|52=20230201-07:00:45.440|56=SERVER|98=0|108=30|10=195|8=FIX.4.2|9=68|35=A|34=65|49=CLIENT|52=20230201-07:00:50.414|56=SERVER|98=0|108=30|10=193|8=FIX.4.2|9=68|35=A|34=66|49=CLIENT|52=20230201-07:01:07.222|56=SERVER|98=0|108=30|10=194|8=FIX.4.2|9=68|35=A|34=67|49=CLIENT|52=20230201-07:01:12.062|56=SERVER|98=0|108=30|10=193|8=FIX.4.2|9=163|35=S|34=68|49=CLIENT|52=20230201-07:01:15.025|56=SERVER|1=ACC|40=2|48=ABC123XYZ|55=ABC123XYZ|60=20230201-12:31:15.025|116=ACC|117=qt|133=0|135=0|301=1|423=1|537=1|10=082|8=FIX.4.2|9=68|35=A|34=69|49=CLIENT|52=20230201-07:01:17.056|56=SERVER|98=0|108=30|10=203|8=FIX.4.2|9=68|35=A|34=70|49=CLIENT|52=20230201-07:01:22.066|56=SERVER|98=0|108=30|10=192|8=FIX.4.2|9=68|35=A|34=71|49=CLIENT|52=20230201-07:02:02.933|56=SERVER|98=0|108=30|10=195|8=FIX.4.2|9=68|35=A|34=72|49=CLIENT|52=20230201-07:02:07.867|56=SERVER|98=0|108=30|10=207|8=FIX.4.2|9=68|35=A|34=73|49=CLIENT|52=20230201-07:02:12.863|56=SERVER|98=0|108=30|10=200|8=FIX.4.2|9=163|35=S|34=74|49=CLIENT|52=20230201-07:02:14.560|56=SERVER|1=ACC|40=2|48=ABC123XYZ|55=ABC123XYZ|60=20230201-12:32:14.560|116=ACC|117=qt|133=0|135=0|301=1|423=1|537=1|10=087|8=FIX.4.2|9=68|35=A|34=75|49=CLIENT|52=20230201-07:02:17.866|56=SERVER|98=0|108=30|10=210|8=FIX.4.2|9=68|35=A|34=76|49=CLIENT|52=20230201-07:02:22.868|56=SERVER|98=0|108=30|10=209|8=FIX.4.2|9=68|35=A|34=77|49=CLIENT|52=20230201-07:02:27.872|56=SERVER|98=0|108=30|10=210|8=FIX.4.2|9=68|35=A|34=78|49=CLIENT|52=20230201-07:02:32.873|56=SERVER|98=0|108=30|10=208|8=FIX.4.2|9=68|35=A|34=79|49=CLIENT|52=20230201-07:02:37.874|56=SERVER|98=0|108=30|10=215|8=FIX.4.2|9=68|35=A|34=80|49=CLIENT|52=20230201-07:02:42.878|56=SERVER|98=0|108=30|10=207|8=FIX.4.2|9=68|35=A|34=81|49=CLIENT|52=20230201-07:02:47.872|56=SERVER|98=0|108=30|10=207|8=FIX.4.2|9=68|35=A|34=82|49=CLIENT|52=20230201-07:02:52.867|56=SERVER|98=0|108=30|10=208|8=FIX.4.2|9=68|35=A|34=83|49=CLIENT|52=20230201-07:02:57.865|56=SERVER|98=0|108=30|10=212|8=FIX.4.2|9=68|35=A|34=84|49=CLIENT|52=20230201-07:03:02.868|56=SERVER|98=0|108=30|10=207|8=FIX.4.2|9=68|35=A|34=85|49=CLIENT|52=20230201-07:03:07.867|56=SERVER|98=0|108=30|10=212|8=FIX.4.2|9=68|35=A|34=86|49=CLIENT|52=20230201-07:03:13.866|56=SERVER|98=0|108=30|10=209|