8=FIX.4.2|9=65|35=A|34=1|49=BANZAI|52=20230201-07:04:39.873|56=EXEC|98=0|108=30|10=220|8=FIX.4.2|9=160|35=S|34=2|49=BANZAI|52=20230201-07:05:02.229|56=EXEC|1=ACC|40=2|48=ABC123XYZ|55=ABC123XYZ|60=20230201-12:35:02.229|116=ACC|117=qt|133=0|135=0|301=1|423=1|537=1|10=099|8=FIX.4.2|9=62|35=0|34=3|49=BANZAI|52=20230201-07:05:25.907|56=EXEC|112=TEST|10=189|8=FIX.4.2|9=53|35=0|34=4|49=BANZAI|52=20230201-07:05:55.914|56=EXEC|10=173|8=FIX.4.2|9=53|35=0|34=5|49=BANZAI|52=20230201-07:06:26.873|56=EXEC|10=177|8=FIX.4.2|9=53|35=0|34=6|49=BANZAI|52=20230201-07:06:56.876|56=EXEC|10=184|8=FIX.4.2|9=53|35=0|34=7|49=BANZAI|52=20230201-07:07:26.887|56=EXEC|10=185|8=FIX.4.2|9=53|35=0|34=8|49=BANZAI|52=20230201-07:07:56.888|56=EXEC|10=190|8=FIX.4.2|9=53|35=0|34=9|49=BANZAI|52=20230201-07:08:26.883|56=EXEC|10=184|8=FIX.4.2|9=54|35=0|34=10|49=BANZAI|52=20230201-07:08:56.883|56=EXEC|10=228|8=FIX.4.2|9=54|35=0|34=11|49=BANZAI|52=20230201-07:09:26.881|56=EXEC|10=225|8=FIX.4.2|9=54|35=0|34=12|49=BANZAI|52=20230201-07:09:56.885|56=EXEC|10=233|8=FIX.4.2|9=54|35=0|34=13|49=BANZAI|52=20230201-07:10:26.879|56=EXEC|10=226|8=FIX.4.2|9=54|35=0|34=14|49=BANZAI|52=20230201-07:10:56.875|56=EXEC|10=226|