8=FIX.4.4|9=67|35=A|34=1|49=CLIENT|52=20230201-06:55:40.216|56=SERVER|98=0|108=30|10=144|8=FIX.4.4|9=67|35=A|34=2|49=CLIENT|52=20230201-06:55:45.204|56=SERVER|98=0|108=30|10=147|8=FIX.4.4|9=67|35=A|34=3|49=CLIENT|52=20230201-06:55:50.239|56=SERVER|98=0|108=30|10=152|8=FIX.4.4|9=67|35=A|34=4|49=CLIENT|52=20230201-06:55:56.208|56=SERVER|98=0|108=30|10=155|8=FIX.4.4|9=67|35=A|34=5|49=CLIENT|52=20230201-06:56:01.206|56=SERVER|98=0|108=30|10=145|8=FIX.4.4|9=67|35=A|34=6|49=CLIENT|52=20230201-06:56:06.196|56=SERVER|98=0|108=30|10=159|8=FIX.4.4|9=67|35=A|34=7|49=CLIENT|52=20230201-06:56:11.204|56=SERVER|98=0|108=30|10=146|8=FIX.4.4|9=67|35=A|34=8|49=CLIENT|52=20230201-06:56:16.201|56=SERVER|98=0|108=30|10=149|8=FIX.4.4|9=67|35=A|34=9|49=CLIENT|52=20230201-06:56:21.196|56=SERVER|98=0|108=30|10=159|8=FIX.4.4|9=68|35=A|34=10|49=CLIENT|52=20230201-06:56:26.203|56=SERVER|98=0|108=30|10=194|8=FIX.4.4|9=68|35=A|34=11|49=CLIENT|52=20230201-06:56:31.204|56=SERVER|98=0|108=30|10=192|8=FIX.4.4|9=68|35=A|34=12|49=CLIENT|52=20230201-06:56:36.198|56=SERVER|98=0|108=30|10=210|8=FIX.4.4|9=68|35=A|34=13|49=CLIENT|52=20230201-06:56:41.207|56=SERVER|98=0|108=30|10=198|8=FIX.4.4|9=68|35=A|34=14|49=CLIENT|52=20230201-06:56:46.201|56=SERVER|98=0|108=30|10=198|8=FIX.4.4|9=68|35=A|34=15|49=CLIENT|52=20230201-06:56:51.195|56=SERVER|98=0|108=30|10=207|8=FIX.4.4|9=68|35=A|34=16|49=CLIENT|52=20230201-06:56:56.210|56=SERVER|98=0|108=30|10=201|8=FIX.4.4|9=68|35=A|34=17|49=CLIENT|52=20230201-06:57:02.201|56=SERVER|98=0|108=30|10=194|8=FIX.4.4|9=68|35=A|34=18|49=CLIENT|52=20230201-06:57:07.195|56=SERVER|98=0|108=30|10=212|8=FIX.4.4|9=68|35=A|34=19|49=CLIENT|52=20230201-06:57:12.194|56=SERVER|98=0|108=30|10=208|8=FIX.4.4|9=68|35=A|34=20|49=CLIENT|52=20230201-06:57:17.206|56=SERVER|98=0|108=30|10=199|8=FIX.4.4|9=68|35=A|34=21|49=CLIENT|52=20230201-06:57:22.195|56=SERVER|98=0|108=30|10=203|8=FIX.4.4|9=68|35=A|34=22|49=CLIENT|52=20230201-06:57:27.204|56=SERVER|98=0|108=30|10=200|8=FIX.4.4|9=68|35=A|34=23|49=CLIENT|52=20230201-06:57:32.198|56=SERVER|98=0|108=30|10=209|8=FIX.4.4|9=68|35=A|34=24|49=CLIENT|52=20230201-06:57:43.408|56=SERVER|98=0|108=30|10=206|8=FIX.4.4|9=68|35=A|34=25|49=CLIENT|52=20230201-06:57:48.410|56=SERVER|98=0|108=30|10=205|8=FIX.4.4|9=68|35=A|34=26|49=CLIENT|52=20230201-06:57:53.418|56=SERVER|98=0|108=30|10=210|8=FIX.4.4|9=68|35=A|34=27|49=CLIENT|52=20230201-06:58:05.241|56=SERVER|98=0|108=30|10=203|8=FIX.4.4|9=68|35=A|34=28|49=CLIENT|52=20230201-06:58:12.891|56=SERVER|98=0|108=30|10=213|8=FIX.4.4|9=68|35=A|34=29|49=CLIENT|52=20230201-06:58:18.412|56=SERVER|98=0|108=30|10=209|8=FIX.4.4|9=68|35=A|34=30|49=CLIENT|52=20230201-06:58:23.413|56=SERVER|98=0|108=30|10=198|8=FIX.4.4|9=68|35=A|34=31|49=CLIENT|52=20230201-06:58:28.421|56=SERVER|98=0|108=30|10=203|8=FIX.4.4|9=68|35=A|34=32|49=CLIENT|52=20230201-06:58:33.407|56=SERVER|98=0|108=30|10=204|8=FIX.4.4|9=68|35=A|34=33|49=CLIENT|52=20230201-06:58:38.407|56=SERVER|98=0|108=30|10=210|8=FIX.4.4|9=68|35=A|34=34|49=CLIENT|52=20230201-06:58:43.420|56=SERVER|98=0|108=30|10=202|8=FIX.4.4|9=68|35=A|34=35|49=CLIENT|52=20230201-06:58:48.418|56=SERVER|98=0|108=30|10=215|8=FIX.4.4|9=68|35=A|34=36|49=CLIENT|52=20230201-06:58:53.417|56=SERVER|98=0|108=30|10=211|8=FIX.4.4|9=68|35=A|34=37|49=CLIENT|52=20230201-06:58:58.409|56=SERVER|98=0|108=30|10=218|8=FIX.4.4|9=68|35=A|34=38|49=CLIENT|52=20230201-06:59:03.409|56=SERVER|98=0|108=30|10=210|8=FIX.4.4|9=68|35=A|34=39|49=CLIENT|52=20230201-06:59:09.417|56=SERVER|98=0|108=30|10=216|8=FIX.4.4|9=68|35=A|34=40|49=CLIENT|52=20230201-06:59:14.415|56=SERVER|98=0|108=30|10=202|8=FIX.4.4|9=68|35=A|34=41|49=CLIENT|52=20230201-06:59:19.414|56=SERVER|98=0|108=30|10=207|8=FIX.4.4|9=68|35=A|34=42|49=CLIENT|52=20230201-06:59:24.408|56=SERVER|98=0|108=30|10=207|8=FIX.4.4|9=68|35=A|34=43|49=CLIENT|52=20230201-06:59:29.416|56=SERVER|98=0|108=30|10=212|8=FIX.4.4|9=68|35=A|34=44|49=CLIENT|52=20230201-06:59:34.422|56=SERVER|98=0|108=30|10=206|8=FIX.4.4|9=68|35=A|34=45|49=CLIENT|52=20230201-06:59:39.417|56=SERVER|98=0|108=30|10=216|8=FIX.4.4|9=68|35=A|34=46|49=CLIENT|52=20230201-06:59:44.416|56=SERVER|98=0|108=30|10=212|8=FIX.4.4|9=68|35=A|34=47|49=CLIENT|52=20230201-06:59:49.414|56=SERVER|98=0|108=30|10=216|8=FIX.4.4|9=68|35=A|34=48|49=CLIENT|52=20230201-06:59:54.417|56=SERVER|98=0|108=30|10=216|8=FIX.4.4|9=68|35=A|34=49|49=CLIENT|52=20230201-06:59:59.417|56=SERVER|98=0|108=30|10=222|8=FIX.4.4|9=68|35=A|34=50|49=CLIENT|52=20230201-07:00:04.418|56=SERVER|98=0|108=30|10=192|8=FIX.4.4|9=68|35=A|34=51|49=CLIENT|52=20230201-07:00:09.416|56=SERVER|98=0|108=30|10=196|8=FIX.4.4|9=68|35=A|34=52|49=CLIENT|52=20230201-07:00:14.413|56=SERVER|98=0|108=30|10=190|8=FIX.4.4|9=68|35=A|34=53|49=CLIENT|52=20230201-07:00:19.417|56=SERVER|98=0|108=30|10=200|8=FIX.4.4|9=68|35=A|34=54|49=CLIENT|52=20230201-07:00:24.415|56=SERVER|98=0|108=30|10=195|8=FIX.4.4|9=68|35=A|34=55|49=CLIENT|52=20230201-07:00:29.412|56=SERVER|98=0|108=30|10=198|8=FIX.4.4|9=68|35=A|34=56|49=CLIENT|52=20230201-07:00:34.411|56=SERVER|98=0|108=30|10=194|8=FIX.4.4|9=68|35=A|34=57|49=CLIENT|52=20230201-07:00:39.411|56=SERVER|98=0|108=30|10=200|8=FIX.4.4|9=68|35=A|34=58|49=CLIENT|52=20230201-07:00:45.440|56=SERVER|98=0|108=30|10=200|8=FIX.4.4|9=68|35=A|34=59|49=CLIENT|52=20230201-07:00:50.414|56=SERVER|98=0|108=30|10=198|8=FIX.4.4|9=68|35=A|34=60|49=CLIENT|52=20230201-07:01:07.083|56=SERVER|98=0|108=30|10=195|8=FIX.4.4|9=68|35=A|34=61|49=CLIENT|52=20230201-07:01:12.062|56=SERVER|98=0|108=30|10=189|8=FIX.4.4|9=68|35=A|34=62|49=CLIENT|52=20230201-07:01:17.056|56=SERVER|98=0|108=30|10=198|8=FIX.4.4|9=68|35=A|34=63|49=CLIENT|52=20230201-07:01:22.066|56=SERVER|98=0|108=30|10=196|8=FIX.4.4|9=68|35=A|34=64|49=CLIENT|52=20230201-07:02:02.879|56=SERVER|98=0|108=30|10=208|8=FIX.4.4|9=68|35=A|34=65|49=CLIENT|52=20230201-07:02:07.867|56=SERVER|98=0|108=30|10=211|8=FIX.4.4|9=68|35=A|34=66|49=CLIENT|52=20230201-07:02:12.863|56=SERVER|98=0|108=30|10=204|8=FIX.4.4|9=68|35=A|34=67|49=CLIENT|52=20230201-07:02:17.865|56=SERVER|98=0|108=30|10=212|8=FIX.4.4|9=68|35=A|34=68|49=CLIENT|52=20230201-07:02:22.868|56=SERVER|98=0|108=30|10=212|8=FIX.4.4|9=68|35=A|34=69|49=CLIENT|52=20230201-07:02:27.872|56=SERVER|98=0|108=30|10=213|8=FIX.4.4|9=68|35=A|34=70|49=CLIENT|52=20230201-07:02:32.873|56=SERVER|98=0|108=30|10=202|8=FIX.4.4|9=68|35=A|34=71|49=CLIENT|52=20230201-07:02:37.874|56=SERVER|98=0|108=30|10=209|8=FIX.4.4|9=68|35=A|34=72|49=CLIENT|52=20230201-07:02:42.878|56=SERVER|98=0|108=30|10=210|8=FIX.4.4|9=68|35=A|34=73|49=CLIENT|52=20230201-07:02:47.872|56=SERVER|98=0|108=30|10=210|8=FIX.4.4|9=68|35=A|34=74|49=CLIENT|52=20230201-07:02:52.865|56=SERVER|98=0|108=30|10=209|8=FIX.4.4|9=68|35=A|34=75|49=CLIENT|52=20230201-07:02:57.864|56=SERVER|98=0|108=30|10=214|8=FIX.4.4|9=68|35=A|34=76|49=CLIENT|52=20230201-07:03:02.867|56=SERVER|98=0|108=30|10=209|8=FIX.4.4|9=68|35=A|34=77|49=CLIENT|52=20230201-07:03:07.867|56=SERVER|98=0|108=30|10=215|8=FIX.4.4|9=68|35=A|34=78|49=CLIENT|52=20230201-07:03:13.866|56=SERVER|98=0|108=30|10=212|